:020000040800F2
:1000000000800020FD160008390500083B050008A7
:100010003D0500083F0500084105000800000000FC
:100020000000000000000000000000004305000880
:1000300045050008000000004705000867050008A6
:100040004517000845170008451700084517000820
:100050004517000845170008451700084517000810
:100060004517000845170008451700084517000800
:1000700045170008451700084517000845170008F0
:1000800045170008451700084517000845170008E0
:1000900045170008451700084517000849050008DE
:1000A00045170008451700084517000845170008C0
:1000B00045170008451700084517000845170008B0
:1000C00045170008451700084517000845170008A0
:1000D0004517000845170008451700084517000890
:1000E0004517000845170008451700084517000880
:1000F0004517000845170008451700084517000870
:10010000000000000000000000000000451700088B
:10011000451700084517000845170008451700084F
:10012000451700084517000845170008451700083F
:1001300045170008451700080000000000000000F7
:100140004517000845170008451700080000000083
:10015000000000000000000000000000000000009F
:1001600000000000000000004517000845170008C7
:10017000451700080000000000000000000000001B
:08018000000000004517000813
:1001880081F0004102E000BF83F0004330B54FEA40
:1001980041044FEA430594EA050F08BF90EA020FAD
:1001A8001FBF54EA000C55EA020C7FEA645C7FEA40
:1001B800655C00F0E2804FEA5454D4EB5555B8BF63
:1001C8006D420CDD2C4480EA020281EA030382EAD4
:1001D800000083EA010180EA020281EA0303362D66
:1001E80088BF30BD11F0004F4FEA01314FF4801C39
:1001F8004CEA113102D0404261EB410113F0004F4B
:100208004FEA03334CEA133302D0524263EB430301
:1002180094EA050F00F0A780A4F10104D5F1200E9F
:100228000DDB02FA0EFC22FA05F2801841F10001FA
:1002380003FA0EF2801843FA05F359410EE0A5F1CE
:1002480020050EF1200E012A03FA0EFC28BF4CF0FF
:10025800020C43FA05F3C01851EBE37101F00045B5
:1002680007D54FF0000EDCF1000C7EEB00006EEBC2
:100278000101B1F5801F1BD3B1F5001F0CD349084C
:100288005FEA30004FEA3C0C04F101044FEA4452A3
:1002980012F5800F80F09A80BCF1004F08BF5FEA2A
:1002A800500C50F1000041EB045141EA050130BD0A
:1002B8005FEA4C0C404141EB010111F4801FA4F1AD
:1002C8000104E9D191F0000F04BF01460020B1FA02
:1002D80081F308BF2033A3F10B03B3F120020CDA3A
:1002E8000C3208DD02F1140CC2F10C0201FA0CF018
:1002F80021FA02F10CE002F11402D8BFC2F1200C7D
:1003080001FA02F120FA0CFCDCBF41EA0C01904032
:10031800E41AA2BF01EB0451294330BD6FEA04047B
:100328001F3C1CDA0C340EDC04F11404C4F1200266
:1003380020FA04F001FA02F340EA030021FA04F378
:1003480045EA030130BDC4F10C04C4F1200220FACF
:1003580002F001FA04F340EA0300294630BD21FA0D
:1003680004F0294630BD94F0000F83F4801306BFD3
:1003780081F480110134013D4EE77FEA645C18BFC7
:100388007FEA655C29D094EA050F08BF90EA020F5E
:1003980005D054EA000C04BF1946104630BD91EA56
:1003A800030F1EBF0021002030BD5FEA545C05D159
:1003B8004000494128BF41F0004130BD14F5800498
:1003C8003CBF01F5801130BD01F0004545F0FE410C
:1003D80041F470014FF0000030BD7FEA645C1ABF41
:1003E800194610467FEA655C1CBF0B46024650EA78
:1003F800013406BF52EA033591EA030F41F40021A4
:1004080030BD00BF90F0000F04BF0021704730B529
:100418004FF4806404F132044FF000054FF00001FE
:1004280050E700BF90F0000F04BF0021704730B5BF
:100438004FF4806404F1320410F0004548BF404294
:100448004FF000013EE700BF42004FEAE2014FEAE9
:1004580031014FEA02701FBF12F07F4393F07F4FC4
:1004680081F06051704792F0000F14BF93F07F4FF6
:10047800704730B54FF4607401F0004521F0004139
:1004880020E700BF50EA010208BF704730B54FF0BF
:1004980000050AE050EA010208BF704730B511F0C4
:1004A800004502D5404261EB41014FF4806404F1FC
:1004B80032045FEA915C3FF4DCAE4FF003025FEA7E
:1004C800DC0C18BF03325FEADC0C18BF033202EB06
:1004D800DC02C2F1200300FA03FC20FA02F001FA60
:1004E80003FE40EA0E0021FA02F11444C1E600BFFF
:1004F8004A0011D212F5001211D20DD56FF478739B
:10050800B3EB62520ED44FEAC12343F0004343EAEF
:10051800505323FA02F070474FF00000704750EA3A
:10052800013002D14FF0FF3070474FF000007047A4
:100538007047FEE7FEE7FEE7FEE770477047704743
:1005480008B5052001F03CF840B172B600F060FB38
:1005580062B60520BDE8084001F042B808BD704702
:1005680008B500F0FDF8082000F0F2FD00F062F890
:10057800642000F0FEF800F063F8642000F0F9F859
:10058800F4E70000F7B54FF40030012100F044FE15
:100598004FF48020012100F03FFEE02300240325D2
:1005A8000093694602234FF090408DF804308DF88F
:1005B80006408DF805508DF8074000F02DFF052105
:1005C8000A464FF0904000F067FF4FF09040062138
:1005D800052200F061FF05224FF09040072100F04E
:1005E8005BFF01264FF4807769464FF090400097F3
:1005F8008DF804608DF806408DF805508DF8076079
:1006080000F00AFF39464FF0904000F041FF1023F8
:100618000748009369468DF804608DF806408DF808
:1006280005508DF8074000F0F7FE03B0F0BD00BF9D
:10063800000400480148102100F02ABF00040048C7
:100648000148102100F026BF00040048F0B5234EF1
:1006580087B04FF48020012100F0DEFD01244FF423
:1006680080750327304602A902958DF80C408DF855
:100678000D708DF80F4000F0CFFE3046294600F08F
:1006880007FF4FF40073002502933046022302A9A6
:100698008DF80F308DF80C508DF80D7000F0BCFE01
:1006A8000921204600F0A3FE0523049304A808238B
:1006B8008DF815308DF814508DF8164000F0FEFEB8
:1006C800172301A88DF804308DF805508DF80650D1
:1006D8008DF8074000F06AFD07B0F0BD000400483F
:1006E80070B51E4C86B0204600F0C6FD4FF4805011
:1006F800012100F09DFD4FF48273ADF806304FF4F0
:100708000073ADF80E30302300254FF4E066ADF8E5
:1007180010302046072301A9ADF81430ADF8045075
:10072800ADF80860ADF80A50ADF80C50ADF81250AD
:1007380000F0E0FD2046314600F03AFE20464FF436
:10074800805100F03DFE2046294600F044FE204638
:10075800012100F021FE06B070BD00BF003001404D
:1007680008B5FFF70FFFFFF7BBFFBDE80840FFF72D
:100778006DBF82B000280BDD41F253730193019BDA
:100788005A1E002B019201DD00BFF8E70138F1E79E
:1007980002B0704710B582B0B9B17F2960F03F0050
:1007A8008DF8040083BF61F07F00C9098DF805004A
:1007B8008DF8051092BF02208DF806100320064917
:1007C8000C6801A9A04702B010BD60F07F008DF849
:1007D80004000120F3E700BF9000002008B51318BB
:1007E800B3F5806F07DC0B461146821E0920FFF720
:1007F800D1FF002008BD4FF0FF3008BD10B582B012
:10080800B9B17F2940F040008DF8040083BF61F042
:100818007F00C9098DF805008DF8051092BF0220E8
:100828008DF80610032005490C6801A9A04702B0FD
:1008380010BD8DF804000120F5E700BF98000020E6
:100848000346002115200522FFF7D8BF00B5042272
:1008580083B080B289B20DEB0203FFF7CFFF20B15E
:100868004FF0FF3003B05DF804FB9DF807009DF8DA
:1008780006109DF805209DF80430A0F5807001EB66
:10088800002002EB002003EB002003B05DF804FB1E
:1008980006200121FFF7DABF00B583B080B289B224
:1008A800022201ABFFF7AAFF20B14FF6FF7003B099
:1008B8005DF804FB9DF805009DF8043003EB00206B
:1008C80080B203B05DF804FBF0B5144683B0170A94
:1008D800160C150E042289B20DEB020380B28DF8B6
:1008E80004408DF805708DF806608DF80750FFF705
:1008F80051FF03B0F0BD00BF08B5054B1A6910439E
:1009080040EA815200210820FFF7DEFF002008BDE1
:100918000000002010B5042104463620FFF796FF9A
:100928003CB920F4006204213620BDE81040FFF7EE
:10093800CBBF40F4006204213620BDE81040FFF729
:10094800C3BF0000024601210A20FFF7BDBF00BF58
:1009580010B5830743BF214B012283F86920022287
:1009680052BF06238222862310F0010482B017D0DA
:1009780002AC002104F8013D012223460D20FFF7B7
:1009880009FF23460F2003210122FFF737FF9DF8B7
:10099800073003F0080303F0FF0063B902B010BD8D
:1009A80002AB214603F8012D0D200122FFF7F2FECC
:1009B800204602B010BD23460122002140240D200C
:1009C8008DF80740FFF7E6FE0020FFF7A3FF034B73
:1009D800002283F869204FF0FF30DFE70000002095
:1009E80000B583B001220DF106030F200321FFF7A4
:1009F80005FF9DF8063023F07F0203F04003B2EBB9
:100A0800430F07D002AB012203F8012D0D2003216B
:100A1800FFF7C0FE03B05DF804FB000030B583B0FB
:100A280002AC402300210E2004F8013DFFF70EFF21
:100A3800002105460A460E20FFF746FF23460021FF
:100A480001220D20FFF7A6FE0021084A0F20FFF71C
:100A58003BFFFFF7C5FF2A4600210E20FFF734FFB2
:100A6800034B002283F8692003B030BDF8FF272428
:100A78000000002030B583B0044600258DF80350EF
:100A8800FFF7AEFFD4B1032401AB294602220D20A3
:100A98008DF804508DF80540FFF77CFE0DEB04033C
:100AA80021460F200122FFF7A9FE9DF8033003F02D
:100AB800080303F0FF007BB903B030BD01252146D0
:100AC800022201AB0D208DF804408DF80550FFF788
:100AD80061FE204603B030BDFFF7A0FF012401AB43
:100AE80029460D2002228DF804508DF80540FFF7A5
:100AF80051FE4FF0FF30DFE710B582B002ACE023C3
:100B080004F8013D0321234601223620FFF742FE67
:100B180023460321F024012236208DF80740FFF7F1
:100B280039FE02B010BD0000014B9B69184700BF99
:100B380030010020074B30B5D3E90045A94208BF72
:100B4800A0423FBF044C226801322260C3E9000181
:100B580030BD00BF880000208000002013B50222AD
:100B6800044601AB07211520FFF748FE02210A467B
:100B780001AB1220FFF742FE04210DEB0103022214
:100B88001220FFF73BFE00211020FFF75FFE01ABAC
:100B9800062102221220FFF731FE9DF804309DF84D
:100BA800052003EB022307EE903AF8EEE77AC4ED4E
:100BB800007A02B010BD000010B5134B9A780132CC
:100BC8009A7002785A7142789A71104A0C46093321
:100BD80002F1340152F8040B43F8040B8A42F9D1AC
:100BE80012781A70084900224020FFF7F7FD00210B
:100BF8004020FFF781FE2046FFF7A4FE0120BDE854
:100C08001040FFF7A5BE00BFE5000020B00000209F
:100C18002DE9F04F7E4B1B68A1B0002B00F07782C6
:100C28000320FFF781FF00210F20FFF70FFE10F4CC
:100C38008041044600F04882012004F4DE46FFF7B4
:100C480073FF0F2000213246FFF73EFE14F4801593
:100C580008D0704B00241C70FFF7E0FEFFF74CFF34
:100C6800204652E2324629460F20FFF72DFE29463C
:100C78001020FFF711FE684CC0F30902234611202B
:100C88002946FFF7BBFD237803F00303012B40F04F
:100C980018820CA8FFF7D4FD9DF833009DF8347036
:100CA8009DF8306002069DF8320052194FF000039B
:100CB8007B41B6184FEA00429DF831004FF000071B
:100CC8005F4192194FF000034FEA00267B41B618A6
:100CD8004FF000075F4130463946FFF72BFF637A34
:100CE800013B042B00F2E981DFE813F00500540012
:100CF800AA006801B801494B1B791D0740F107821A
:100D0800444DDFF830A101232B70DAF800304FF0A2
:100D1800000816EB08004FEA0329414B47EB09018D
:100D2800C3E90001DFF8F0903E4BD9F81120D9F85B
:100D38000D10300A83E8060040EA0760FFF762FBFF
:100D480031A3D3E90023FFF721FAFFF7D1FB364B94
:100D580099F80A201C68354B204420F001042146EC
:100D6800022609F107005A701E70FFF725FF40465A
:100D7800FFF780FEDAF800702E70200218EB0002F0
:100D88004FEA14614FEA07234B4129490420C1E97E
:100D98000023A2E1274D2B684FF0000816EB080A44
:100DA8004FEA0329244B47EB090B300AC3E900AB90
:100DB80040EA0760FFF726FB13A3D3E90023FFF7F8
:100DC800E5F9FFF795FB194B2E68A17A597020F0C9
:100DD8000102140203201870150E18EB04004FEAE4
:100DE80006216941586099601448C3F80CA011465F
:100DF800C3F810B0FFF7E0FE084B1B799C0740F1E1
:100E0800868129E1AFF30080000000008084FE4065
:100E1800840000207C0000205401002030010020C4
:100E2800B8010020A8000020A0000020B000002089
:100E3800B001002080000020280100205B01002074
:100E4800B74BDFF8FCB21B68DFF8F8A2DFF8F892BE
:100E5800DFF8F882B34D1B02019300230093DDE90C
:100E6800002392197B4116461F46CBE90067AE4E18
:100E7800D4F80D10D4F81130AC4F86E80A00D4F835
:100E88001510D4F819300BA887E80A00FFF766FE9A
:100E9800217AE37903EB0123DAE90001CDE91001B6
:100EA800D9E90001CDE91201D8E90001CDE9140121
:100EB800D7E90001CDE91601D6E90001ADF83830CF
:100EC8006B88ADF83A30CDE91801A37AADF83C301B
:100ED800DBE9000100231C930B9B1D93CDE91A014C
:100EE800002306201E93FFF71FFE2B79980660D576
:100EF800DAF800300293D9F800300393D9F80430B7
:100F08000493D8F800300593D8F8043006933B686A
:100F1800BDF83CC007937B68CDF824C0BDF83840C5
:100F28000893D6F80090D6F80480DAF804A0DBF825
:100F38000070DBF80460FFF7ABFCFFF763FA76A3F9
:100F4800D3E90023FFF722F9FFF7D2FA784BDDF84F
:100F580024C09C7004221A70029A5A60039ADA60BC
:100F6800049A1A61059A5A61069A9A61079ADA618F
:100F7800089A1A62240A002220F0010183F801C0AD
:100F8800DC70C3F808A0C3F82490C3F82880DF6297
:100F98001E6383F834200AA8FF238DF828308DF8C3
:100FA8002930FFF709FE2B79990702D50098FFF73A
:100FB80061FD5C4B0EA89B6898477EE0594D2B79E4
:100FC8005A0649D5002148220EA800F0E1FB227BF1
:100FD800E37A03EB0223ADF83830227AE37903EBA6
:100FE8000223ADF83A30A37AADF83C3094F83D309E
:100FF80007EE903AF8EE677ABAEE047AC7EE877A87
:101008000EA8CDED1E7AD4F80D20D4F81130119326
:101018001092D4F81520D4F8193013931292D4F8FA
:101028001D20D4F8213015931492D4F82520D4F833
:10103800293017931692D4F82D20D4F8313019930B
:101048001892D4F83520D4F839301A921B93AB682B
:1010580098470920FFF768FD002056E0DFF8C480B4
:1010680098F80430DB06F7D5D4F81130D4F80D2001
:10107800304D0BA885E80C00FFF770FD0EA8002185
:10108800282200F085FB227AE37903EB0223ADF8EE
:101098003830A37AADF83A30D5E90023CDE91023EA
:1010A800002315930B9B169300231793CDE9126722
:1010B800D8F80C300EA89847CEE71F4B00201870C0
:1010C80023E01D4B1D701FE014F080064FF00F0049
:1010D80006D0F822FFF7F8FB0220FFF725FD16E0FF
:1010E80014F4003507D031462A46FFF7EDFBFFF729
:1010F80095FC304609E0114A29462240FFF7E4FBF7
:10110800FFF78CFCFFF7F8FC2846FFF7B3FC21B08B
:10111800BDE8F08FAFF30080000000008084FE403F
:101128008000002030010020A001002028010020BC
:10113800B0000020980100207C00002000902724A7
:10114800A8010020A8000020B8010020B00100205C
:1011580030B5154C87B00546204600F08DF84FF4A1
:1011680082720023ADF806204FF4E062ADF8043037
:10117800ADF80820ADF80A304FF40072ADF80C3025
:10118800ADF812302046072301A9ADF80E20ADF8BE
:101198001430ADF8105000F0ADF82046012100F0F1
:1011A800FBF807B030BD00BF00300140C2780378BB
:1011B80010B50AB3164AD4684278E443C4F302244B
:1011C800C4F1040102FA01F10F22E24084782240BE
:1011D8000A4303F1604303F561431201D2B283F875
:1011E800002303780122590903F01F0302FA03F3CD
:1011F800084A42F8213010BD5A09012103F01F03A3
:10120800994002F12003034A42F8231010BD00BFA1
:1012180000ED00E000E100E0044B5A6909B1104319
:1012280001E022EA00005861704700BF0010024048
:10123800044B9A6909B1104301E022EA0000986161
:10124800704700BF00100240044BDA6809B1104330
:1012580001E022EA0000D860704700BF0010024099
:10126800044B1A6909B1104301E022EA0000186131
:10127800704700BF0010024008B51A4B984207D1CA
:101288004FF480500121FFF7DFFF4FF4805023E037
:10129800154B984207D14FF480400121FFF7E0FF3A
:1012A8004FF4804009E0114B98420BD14FF40040B5
:1012B8000121FFF7D5FF4FF400400021BDE80840A9
:1012C800FFF7CEBF0A4B98420BD14FF400400121E3
:1012D800FFF7BAFF4FF400400021BDE80840FFF7D0
:1012E800B3BF08BD0030014000380040003C00405A
:1012F800003C01402DE9F0414D880E88CB880C89CF
:101308004A89B1F80C80B1F80EE08F88B5F5827F74
:101318001BD11E4346F4827646EA0405B0F800C0A5
:1013280045EA020444EA080242EA0E030CF4415C6E
:101338004CEA03039BB20380828822F470631B0487
:101348001B0C3B439BB283801CE0B0F804C02CF418
:10135800706C4FEA0C4C4FEA1C4C4CEA07072E43C2
:10136800BFB23343878023430788134343EA080304
:1013780007F4415743EA0E0347EA030E1FFA8EFEAD
:10138800A0F800E0838B23F400631B041B0C838309
:101398000B8A0382BDE8F081038819B19BB243F040
:1013A800400303E023F040031B041B0C0380704739
:1013B800838823F470631B041B0C194381807047D6
:1013C800838823F480531B041B0C838083889BB27F
:1013D800194381807047838819B19BB243F0040395
:1013E80003E023F004031B041B0C8380704701F007
:1013F800030301F0FC0101F1804101F5803110B5D2
:101408009B008C680F229A4024EA02028A608A684C
:10141800984002438A6010BDF0B500230E681C4650
:101428000125A54005EA060EAE452BD10F797A1E97
:10143800012A15D8856803229A4025EA02028260AB
:101448004D7982689D4015438560828892B222EA70
:101458000E0282808A798588A2402A4392B28280CD
:10146800032205689A40D2431540056005689F40ED
:101478002F430760C7681740CA7902FA03F547EA9D
:101488000502C2600134102C03F10203C8D1F0BD7B
:10149800816170470185704701F00703C90800EBB7
:1014A800810010B59B00046A0F21994024EA0101CC
:1014B8000162016A9A401143016210BD8279036892
:1014C80070B50479002A64D023F01F0101F180412E
:1014D80001F5823103F01F020D68012303FA02F2BD
:1014E80025EA02020A600268324D22F01F0602F065
:1014F8001F02715903FA02F221EA020272510168CD
:1015080004F1804202F5823221F01F0401F01F012C
:10151800155903FA01F1294311510268264D22F0A9
:101528001F0402F01F02615903FA02F221EA0202C3
:1015380062510268214C22F01F0602F01F02315945
:1015480003FA02F221EA02024179325110290268B3
:1015580012D122F01F0102F01F024E5903FA02F2C3
:1015680032434A51026822F01F0102F01F02085953
:10157800934003430B5170BD01F1804122F01F00DD
:1015880001F5823102F01F020C58934023430B509F
:1015980070BD04F1804202F5823223F01F0401205D
:1015A800115903F01F0300FA03F321EA030313514F
:1015B80070BD00BF04040140080401400C04014050
:1015C80020F01F02054B00F01F00D2580123834072
:1015D8001A4214BF01200020704700BF14040140C4
:1015E80020F01F01012300F01F00024A83408B50A6
:1015F800704700BF14040140394AD2F8883043F4D8
:101608007003C2F88830374B1A6842F001021A603A
:101618005968354A0A405A601A6822F0847222F4DE
:1016280080321A601A6822F480221A605A6822F4FA
:10163800FE025A60DA6A22F00F02DA62196B2B4A4C
:1016480082B00A401A6300229A60009201921A68D6
:1016580042F480321A601A6802F400320192009A49
:1016680001320092019A1AB9009AB2F5A04FF2D14C
:101678001A6812F4003218BF01220192019A012A55
:1016880005D0174B4FF000629A6002B07047184AB5
:10169800122111605A685A605A685A605A6842F4AE
:1016A80080625A605A6822F47C125A605A6842F47E
:1016B800E8125A601A6842F080721A601968094A7A
:1016C8008901FBD5516821F003015160516841F04F
:1016D800020151605A6802F00C02082AFAD1D0E7D8
:1016E80000ED00E0001002400CC07FF8CCFC00FFC9
:1016F80000200240002103E00B4B5B5843500431AB
:101708000A480B4B42189A42F6D30A4A02E00023D1
:1017180042F8043B084B9A42F9D3FFF76DFF00F0FB
:101728000FF8FEF71DFFFEE74C1800080000002028
:101738000000002000000020C0010020FEE700009B
:1017480070B50F4E0F4D761BB61018BF002405D08C
:10175800013455F8043B9847A642F9D10A4E0B4D7F
:10176800761B00F063F8B61018BF002406D00134C9
:1017780055F8043B9847A642F9D170BD70BD00BF2B
:101788000000000000000000000000000000000051
:1017980070B4840746D0541E002A41D0CDB2034607
:1017A80002E0621EE4B3144603F8015B9A07F8D11D
:1017B800032C2ED9CDB245EA05250F2C45EA05455F
:1017C80019D903F110022646103E0F2E42F8105C7C
:1017D80042F80C5C42F8085C42F8045C02F1100222
:1017E800F2D8A4F1100222F00F0204F00F04103214
:1017F800032C13440DD91E462246043A032A46F800
:10180800045BFAD8221F22F003020432134404F0C6
:1018180003042CB1C9B21C4403F8011BA342FBD139
:1018280070BC704714460346C2E700BFF8B500BF56
:10183800F8BC08BC9E467047F8B500BFF8BC08BCA9
:041848009E46704701
:04000005080016FDDC
:00000001FF
